:10000000B3C10000D1C10000CFC10000CDC10000CC
:10001000CBC10000C9C10000C7C10000C5C10000BC
:10002000C3C10000C1C10000BFC10000BDC10000CC
:1000300049C40000B9C10000B7C10000B5C100004B
:10004000B3C10000B1C10000AFC10000ADC10000EC
:10005000ABC10000A9C10000A7C10000A5C10000FC
:10006000A3C10000A1C100009FC100009DC100000C
:100070009BC1000099C1000097C1000095C100001C
:1000800093C1000091C100008FC100008DC100002C
:100090008BC1000089C1000087C1000085C100003C
:1000A00083C1000081C100007FC100007DC100004C
:1000B0007BC1000079C1000077C1000075C100005C
:1000C00073C1000071C100006FC100006DC100006C
:1000D0006BC1000069C1000067C1000065C100007C
:1000E00063C1000044014401440173017B018A01A2
:1000F0004401440173017B0104E412E00F2EFCE68D
:10010000EF2EF2E0FF2EF02D80914302882311F1B3
:100110000FB6F8940F92D8011596ED91FC911697B1
:10012000C681D781CE01029635D2809139028150A5
:1001300080933902809143028150809343020F9053
:100140000FBE8F89988DB5D1CE01B3D18091430276
:100150008111DECFF7018081823008F0F0D20E9459
:10016000F00CD2CFCF93DF9300D000D0CDB7DEB765
:10017000CE0101964C0144244394E12CF12C512CE6
:10018000C82ED92CE0919A02F0919B02808188239D
:1001900009F4D7C00580F681E02DA080B1800E94CF
:1001A000D708C4010E94820C8C018981811148C04A
:1001B0000A151B05B0F10E949E09E0919A02F09188
:1001C0009B020580F681E02D66807780C301029650
:1001D000E1D1D30153968C91539782FF17C01C969F
:1001E0006D917C911D976A0D7B1D9501A801C3013E
:1001F0000E94C70B882369F00E2D1F2D2E2D3F2D39
:10020000A501652DC3010E943E0C03C08E7FF30142
:10021000838BD3015096ED91FC915197C3011995B1
:1002200084C0452DB501601B710B809196029091A1
:100230009702F1D50E949E09811177C080D275C0C6
:100240000E949E0972C0898188230CF46EC0AC8024
:10025000BD80F50182859385892B19F0C501029631
:1002600099D1CE0106960E94820CAC01E9810E2E36
:10027000000CFF0BEA30F10508F057C08827EE5854
:10028000FF4F8F4F0C940B0DD50153968C915397C4
:10029000816053968C9353972A813B811C966D9174
:1002A0007C911D97620F731FC5010E94C70B8823A5
:1002B000E1F1D5015096ED91FC915197C501199549
:1002C000F501838982FF31C04A815B8184859585F0
:1002D000480F591F0E2D1F2D2E2D3F2D652DC501A9
:1002E0000E943E0C22C0D50153968C9153978E7F6D
:1002F00053968C931AC0F50183898160838B6A8140
:100300007B8175876487640F751F9A01C5010E9400
:10031000C70B0BC0D50153968C9181FD03C0C5015D
:10032000C8D003C08E7FF501838B4E2D5F2D6C2DC1
:100330007D2D8091960290919702E4D4811183CF14
:1003400021CF35D7C4010E94820C8C018981811193
:1003500077CFE0919802F09199028081442D81112C
:10036000452DAE2CBF2C5ECF11241FBECFEFD1E2A6
:10037000DEBFCDBF00E00CBF12E0A0E0B2E0ECE0D9
:10038000F2E200E00BBF02C007900D92AC32B10761
:10039000D9F722E0ACE2B2E001C01D92AA3BB2075D
:1003A000E1F751D00C9404112BCE61E070E080E0B5
:1003B00090E00E94270AC1E08AE090E00E94170ABC
:1003C00082B18C2782B9F8CF62E070E080E090E0E3
:1003D0000E94270A82E390E00E94170A82B18058A7
:1003E00082B9F8CFEF92FF920F938091AE02909175
:1003F000AF02892B71F481E035D49093AF028093E2
:10040000AE02009731F020E040E050E060E070E0A4
:1004100097D3E12CF12C02E020E030E040EC50E0FA
:1004200066E072E085ED91E084D501E020E030E007
:1004300040EC50E06CE072E084EE91E07AD50F91F0
:10044000FF90EF90089581B1816881B90BD0CADF28
:100450007DD6C2E1D2E0DF93CF930E94440E0F908D
:100460000F90F9CFE7E0F1E080818F6080830895FD
:10047000E8E0F1E09081907F908390818F70982BDD
:1004800090830895E8E0F1E08081807F8083089583
:10049000CF93DF93EC018BD6CE010E94130DEC01BC
:1004A0004DD7209711F40E94F10CCE01DF91CF912E
:1004B0000895CF93DF93009731F0EC0178D6CE0109
:1004C0000E94AB0D3BD7DF91CF910895FC010396BD
:1004D000928381832FEF3FEF348323839683858339
:1004E0009087878310820895FC01118610860895F5
:1004F000CF93DF939C01FB01DC011196CD91DC9140
:100500001297D383C2838C819D81958384838C8150
:100510009D81DC0113967C936E9312977D836C838F
:1005200031872087F90180818F5F8083DF91CF91B0
:100530000895CF93DF93EB01488159814F3F2FEF0F
:10054000520721F4FC01A781B0850DC0DC01139690
:1005500001C0DF011296ED91FC911397208131814A
:1005600042175307B0F71296ED91FC911397FB8356
:10057000EA83D583C483BD83AC831396DC93CE9387
:10058000129799878887FC0120812F5F2083DF9154
:10059000CF910895CF93DF93FC01A085B185C281EF
:1005A000D381848195819D838C83C481D58182810F
:1005B00093819B838A8311968D919C911297E81762
:1005C000F90731F48481958112969C938E9311974B
:1005D000118610868C9181508C938C91DF91CF91F4
:1005E000089531E1FC013083319722E22083319775
:1005F000A3E3A08331976083319770833197108292
:1006000031971082319760E860833197108231977B
:10061000108231971082319762E06083319763E0F6
:100620006083319764E06083319765E06083319740
:1006300066E06083319767E06083319768E06083AC
:10064000319769E06083319760E16083319730834F
:10065000319732E13083319733E13083319734E1A0
:100660003083319735E13083319736E130833197EC
:1006700037E13083319738E13083319739E1308386
:10068000319730E23083319731E2308331972083E4
:10069000319723E2208331974083319750833197FC
:1006A00026E22083319727E22083319728E22083B6
:1006B000319729E22083319720E32083319721E38A
:1006C000208389970895A89590EC88E10FB6F89457
:1006D000A895809360000FBE90936000A091900257
:1006E000B0919102CD91CDBFDD91DEBFFF91EF9131
:1006F000DF91CF91BF91AF919F918F917F916F913A
:100700005F914F913F912F911F910F91FF90EF902B
:10071000DF90CF90BF90AF909F908F907F906F9021
:100720005F904F903F902F901F900F900CBE0F90B6
:100730000BBE0F900FBE0F90089581E008950F92A9
:100740000FB6F8940F920BB60F920CB60F921F9241
:1007500011242F923F924F925F926F927F928F92CD
:100760009F92AF92BF92CF92DF92EF92FF920F9340
:100770001F932F933F934F935F936F937F938F9329
:100780009F93AF93BF93CF93DF93EF93FF93A0918A
:100790009002B09191020DB60D920EB60D9266D6F2
:1007A000A0919002B0919102CD91CDBFDD91DEBFBD
:1007B000FF91EF91DF91CF91BF91AF919F918F9179
:1007C0007F916F915F914F913F912F911F910F9169
:1007D000FF90EF90DF90CF90BF90AF909F908F9061
:1007E0007F906F905F904F903F902F901F900F9051
:1007F0000CBE0F900BBE0F900FBE0F9008950F927E
:100800000FB6F8940F920BB60F920CB60F921F9280
:1008100011242F923F924F925F926F927F928F920C
:100820009F92AF92BF92CF92DF92EF92FF920F937F
:100830001F932F933F934F935F936F937F938F9368
:100840009F93AF93BF93CF93DF93EF93FF93A091C9
:100850009002B09191020DB60D920EB60D9213BE9C
:10086000B6D4811103D6A0919002B0919102CD919E
:10087000CDBFDD91DEBFFF91EF91DF91CF91BF91B1
:10088000AF919F918F917F916F915F914F913F9128
:100890002F911F910F91FF90EF90DF90CF90BF901D
:1008A000AF909F908F907F906F905F904F903F9010
:1008B0002F901F900F900CBE0F900BBE0F900FBE8D
:1008C0000F9008959CDF18950FB6F8940F92FC01D5
:1008D000928D0F900FBE81E0911180E008950F93EB
:1008E0001F93CF93DF93EC01042F1A8D4C8D411190
:1008F0000BC088819981892B09F041C08C819D8131
:1009000006D71D821C8242C0011117C050E08A81A7
:100910009B810E94340E2C8D8A819B81820F911DB8
:100920009B838A832C813D818217930750F18881B4
:1009300099819B838A8380E029C050E08E819F81CA
:100940000E94340E8C8D90E09195819591092E81B5
:100950003F81280F391F3F832E83488159812417F7
:10096000350730F42C813D81820F931F9F838E8346
:10097000023049F4112349F0115080E007C080E0B3
:1009800005C080E003C080E001C080E01F5F1A8FD7
:10099000DF91CF911F910F910895FC01448D442365
:1009A000A9F050E026813781240F351F3783268335
:1009B000848195812817390720F080819181978360
:1009C0008683CB01668177810C94340E0895EF9273
:1009D000FF920F931F93CF938C010FB6F8940F9251
:1009E000FC01C68D1C169CF48189811106C00FC0C4
:1009F000F8018189811105C00AC07801F1E1EF0E8B
:100A0000F11CC701EAD5811170D6C15089F78FEF6B
:100A1000F801868F0F900FBE0FB6F8940F92C58D18
:100A20001C169CF48085811106C00FC0F8018085DA
:100A3000811105C00AC07801F8E0EF0EF11CC70172
:100A4000CCD5811152D6C15089F78FEFF801858F2F
:100A50000F900FBECF911F910F91FF90EF900895CF
:100A6000CF93DF93EC010FB6F8940F92E881F981F0
:100A70008B8D2C8D90E030E0829FA001839F500DE4
:100A8000929F500D11244E0F5F1F5D834C831A8E71
:100A9000FB83EA830197829FA001839F500D929F61
:100AA000500D1124CF01840F951F9F838E838FEFEC
:100AB0008D8F8E8F61110AC08885882369F0CE01E1
:100AC00008968BD5882341F03ADE06C0CE01089601
:100AD000FDDCCE014196FADC0F900FBE81E0DF9184
:100AE000CF910895FF920F931F93CF93DF93082F19
:100AF000162FF42E6623B9F0869FC001112481962B
:100B0000C7DCEC01009741F414C00B8F1C8F61E02F
:100B1000CE01A6DFF8A20DC0819699838883F5CF18
:100B2000D983C883F2CF81E290E0B2DCEC01892B5B
:100B3000B9F7CE01DF91CF911F910F91FF900895EA
:100B40009F92AF92BF92CF92DF92EF92FF920F935C
:100B50001F93CF93DF9300D01F921F92CDB7DEB7C4
:100B60008C016B015D834C83A22EB12C992493944C
:100B70007C0188E0E80EF11C0FB6F8940F92F801A2
:100B8000928D838D981718F0F2E0AF1215C04A2DA0
:100B9000B601C801A4DEF8019189992339F0C80192
:100BA00041961BD5882321F0CADD02C08111C7DD23
:100BB0000F900FBE81E045C08C819D81892B21F46F
:100BC0000F900FBE80E03DC0B11004C0CE01019671
:100BD0004CD5B92C0F900FBEEAD20FB6F8940F92F5
:100BE000F801858D8F3F09F4158EF801868D8F3FB2
:100BF00009F4168E0F900FBEBE016C5F7F4FCE01C1
:100C000001963ED5811119C00FB6F8940F92F801E4
:100C1000928D838D0F900FBE98130BC06C817D81D8
:100C2000C701B2D4C801D3DE89D38111A5CF87DD36
:100C3000A3CFC801CCDE82D39FCFC801C8DE7ED34C
:100C400080E00F900F900F900F900F90DF91CF9159
:100C50001F910F91FF90EF90DF90CF90BF90AF90DA
:100C60009F900895CF93DF93482F60E081E03ADFB3
:100C7000EC01009759F01D821C82198218821E8295
:100C800020E040E050E060E070E05ADFCE01DF910C
:100C9000CF910895EF92FF920F931F93CF93DF931D
:100CA0008A01FC01528D338D531710F02230E1F48C
:100CB000422F7801EC011E8D12DE1F3F79F48989E5
:100CC0008823A1F0CE01419688D4882389F0E114CD
:100CD000F10481F081E0F70180830DC0FF24F394DB
:100CE000F10EFE8E81E007C080E005C081E003C008
:100CF00081E001C081E0DF91CF911F910F91FF90C2
:100D0000EF9008959F92AF92BF92CF92DF92EF92B1
:100D1000FF920F931F93CF93DF9300D01F921F92E8
:100D2000CDB7DEB78C015B015D834C83E12C992448
:100D300093946C0181E1C80ED11C0FB6F8940F9208
:100D4000F801F28CFF2091F0B501C80126DEFA947B
:100D5000F801F28E8085882329F0C80108963DD4D9
:100D60008111EDDC0F900FBE81E044C08C819D812C
:100D7000892B21F40F900FBE80E03CC0E11004C02D
:100D8000CE01019672D4E92C0F900FBE10D20FB68F
:100D9000F8940F92F801858D8F3F09F4158EF801B4
:100DA000868D8F3F09F4168E0F900FBEBE016C5FCB
:100DB0007F4FCE01019664D4811113C0C80184DD38
:100DC000882359F06C817D81C601DED3C801FFDD27
:100DD000B5D28111B2CFB3DCB0CFC801F8DDAED24D
:100DE000ACCFC801F4DDAAD2C8016EDD882309F4B6
:100DF000A4CF80E00F900F900F900F900F90DF9195
:100E0000CF911F910F91FF90EF90DF90CF90BF9007
:100E1000AF909F900895CF93DF93EC010FB6F894B5
:100E20000F928D8D8F3F09F41D8E8E8D8F3F09F4AB
:100E30001E8E0F900FBE8A8D811103C0CE01419688
:100E4000B4D3CE01C4DDDF91CF910895E091580273
:100E5000F09159028081811107C08FEF9FEF90932D
:100E6000300280932F020895E0915802F0915902C8
:100E70000580F681E02D0680F781E02D8281938147
:100E80009093300280932F020895FF920F931F9347
:100E9000CF93DF93EC01F62E0091370210913802C8
:100EA0008091900290919102029674DBCF3F8FEF78
:100EB000D80761F4FF2051F0609190027091910287
:100EC0006E5F7F4F8AE392E013DB2DC0C00FD11F0E
:100ED000E0919002F0919102D383C283C017D107B1
:100EE00060F460919002709191028091560290910D
:100EF00057026E5F7F4F1DDB16C0609190027091AC
:100F0000910280915802909159026E5F7F4F11DBE0
:100F100080912F0290913002C817D90720F4D09306
:100F20003002C0932F02DF91CF911F910F91FF905C
:100F300008954F925F926F927F928F929F92AF929D
:100F4000BF92CF92DF92EF92FF920F93CF93DF93F6
:100F50004C016B015A012901CA019ADA3C01892B23
:100F600009F4E3C08CE290E093DAEC01892B91F074
:100F7000788E6F8AA50165EA70E0C3017ED681E0B4
:100F8000A81AB1088F89988DA80EB91EC114D10472
:100F900021F41FC0C3018DDAC8C0D6018C91898F9E
:100FA0008C918823A1F0AE01465E5F4FF601319629
:100FB000B8E0CB0ED11CCF012191DA012D93AD0108
:100FC000DC018C91882319F0EC15FD05A1F718A21E
:100FD00001C0198E043008F003E00E8B0BA31CA295
:100FE0006E01B2E0CB0ED11CC6017EDACE010C96AA
:100FF0007BDAD987C88784E090E0801B91099D87C0
:101000008C87DB8BCA8B1EA21DA21FA218A619A655
:101010001AA61BA6A201B401C501E3DA998388834D
:10102000E114F10419F0F701D183C0830FB6F894ED
:101030000F92809139028F5F8093390280919002E4
:1010400090919102892B89F5D0939102C0939002DF
:1010500080913902813009F038C08CE692E036DAAE
:1010600085E792E033DA8EE792E030DA87E892E0C3
:101070002DDA83E692E02ADA8AE592E027DA8DE437
:1010800092E024DA84E492E021DA8AE392E01EDA44
:1010900083E692E090935902809358028AE592E0A9
:1010A000909357028093560210C0809135028111AF
:1010B0000CC0E0919002F091910296898E89891777
:1010C00020F0D0939102C0939002809131028F5F03
:1010D0008093310289A38E8990913602981710F47B
:1010E0008093360290E09C01220F331F220F331FA2
:1010F000220F331F820F931FB60184599D4FF8D9D9
:101100000F900FBE80913502882359F0E091900234
:10111000F091910296898E89981728F410DB81E06E
:1011200005C081E003C081E001C08FEFDF91CF9166
:101130000F91FF90EF90DF90CF90BF90AF909F9076
:101140008F907F906F905F904F900895EF92FF92F5
:101150000F930F2EFDE2EF2EF2E0FF2EF02D00E0B8
:1011600020E030E040EC50E06EE172E08CE790E08F
:10117000E0DE8130C1F462D38130A9F4F8948FEFBE
:101180009FEF9093300280932F0281E0809335028D
:101190001092380210923702E0919002F091910281
:1011A00085A166D990DA0F91FF90EF900895809114
:1011B0002C028F5F80932C0208950FB6F8940F9243
:1011C00080913702909138020F900FBE0895CF9210
:1011D000DF92EF92FF920F931F93CF93DF93809153
:1011E0002C02811195C0E0903702F09038028FEF09
:1011F000E81AF80AF0923802E0923702E114F1049A
:10120000B1F4809158029091590220915602309188
:1012100057023093590220935802909357028093BB
:101220005602809132028F5F809332020FDE8091EE
:101230002F0290913002E816F90610F4D12C50C01C
:10124000D12CCC24C394E0915802F09159028081B2
:10125000811107C08FEF9FEF9093300280932F0290
:101260003FC0E0915802F09159020580F681E02DCF
:10127000C681D7818A819B81E816F90628F490936C
:10128000300280932F022CC08E010E5F1F4FC801C9
:1012900081D98C899D89892B19F0CE010C967AD938
:1012A0008E8990913602981710F48093360290E060
:1012B0009C01220F331F220F331F220F331F820F77
:1012C000931FB80184599D4F13D9E0919002F0917A
:1012D00091029E898689981708F4B5CFDC2CB3CF8C
:1012E000E0919002F0919102868990E0FC01EE0F6E
:1012F000FF1FEE0FFF1FEE0FFF1F8E0F9F1FFC0142
:10130000E459FD4F8081823048F0DD24D39406C03B
:10131000809134028F5F80933402D12C809133020C
:10132000882311F0DD24D3948D2DDF91CF911F916F
:101330000F91FF90EF90DF90CF900895DF92EF92A2
:10134000FF920F931F93CF93DF930FB6F8940F92F2
:1013500080912C02815080932C0280912C0281116B
:1013600059C080913902811130C057C0D7011596FC
:10137000ED91FC911697C681D781CE010C960AD9C2
:101380008E010E5F1F4FC80105D98E8990913602DC
:10139000981710F48093360290E09C01220F331FBF
:1013A000220F331F220F331F820F931FB80184595E
:1013B0009D4F9ED8E0919002F09191029E8986897E
:1013C000981768F0D09233020AC0C0E0D0E00F2E28
:1013D000FDE4EF2EF2E0FF2EF02DDD24D394F70193
:1013E00080818111C3CFCD2B09F030DDC091340253
:1013F000CC2349F0D1E0EBDE8111D0933302C15010
:10140000D1F71092340280913302882329F097D9C2
:1014100081E003C080E001C080E00F900FBEDF914B
:10142000CF911F910F91FF90EF90DF900895CF9390
:10143000DF93EC01892B39F0BADE60E0CE0125DDC7
:101440007DDF811101C07BD9DF91CF910895009795
:1014500021F480919002909191020FB6F8940F922E
:10146000FC0176A365A30F900FBE089580912C0216
:10147000882321F081E08093330208951092330293
:10148000E0919002F091910285A10E944202A09108
:101490009002B0919102E0919002F09191022D9111
:1014A0003C918789908D8217930758F06091900244
:1014B000709191028091900290919102675E7F4FAE
:1014C0009DD220913602822F90E0FC01EE0FFF1F8B
:1014D000EE0FFF1FEE0FFF1FE80FF91FE459FD4F3E
:1014E0003081311111C02150822F90E0FC01EE0FAC
:1014F000FF1FEE0FFF1FEE0FFF1FE80FF91FE4594C
:10150000FD4F3081332379F3AC01440F551F440F55
:10151000551F440F551F480F591FDA01A459BD4FDD
:101520001196ED91FC9112970280F381E02D1296B5
:10153000FC93EE93119741595D4FE417F50729F499
:1015400042815381FD0152834183FC01EE0FFF1F55
:10155000EE0FFF1FEE0FFF1F8E0F9F1FFC01E459C0
:10156000FD4F0180F281E02D868197819093910259
:101570008093900220933602E0919002F0919102C4
:1015800085A10C9438020895CF93DF93EB0160910D
:10159000900270919102645F7F4F0E94990261E016
:1015A000CE0173DCDF91CF9108950F931F93CF93FA
:1015B0008B01C42F6091900270919102645F7F4F04
:1015C0000E947802CC2311F00FEF1FEF6C2FC8019F
:1015D0005CDCCF911F910F9108950F931F93CF93D0
:1015E000DF93DC011596ED91FC911697C681D781AA
:1015F0008E01045F1F4FC8010E94CA0280912C0215
:1016000081111CC00A501109C8010E94CA028E89AA
:1016100090913602981710F48093360290E09C0166
:10162000220F331F220F331F220F331F820F931FEE
:10163000B80184599D4F0E94780205C0B8018DE41D
:1016400092E00E947802E0919002F09191029E89CE
:101650008689891720F481E08093330201C080E0FD
:10166000DF91CF911F910F91089520913202FC01DB
:1016700020832091370230913802328321830895EC
:10168000CF93DF930FB6F8940F92209137023091E9
:101690003802DB014D915C914F3FBFEF5B07E9F0F2
:1016A000EC01E981FA81A0913202B881BA1719F0F0
:1016B0002E173F07A0F42E1B3F0B2417350740F4CD
:1016C000FB01421B530B51834083CFDF80E008C0F6
:1016D000FB011182108281E003C080E001C081E043
:1016E0000F900FBEDF91CF91089581E08093330278
:1016F000089580913502882331F080912C0288234F
:1017000021F080E0089581E0089582E008950F932C
:101710001F93CF93DF93FC01892B79F184A1815032
:1017200084A3268993A1291751F181112AC0EF01C1
:101730008F010E5F1F4FC8010E94CA028BA18E8BC2
:1017400024E030E0281B31093D872C879091360238
:10175000981710F48093360290E09C01220F331FFB
:10176000220F331F220F331F820F931FB80184599A
:101770009D4F0E94780281E005C080E003C080E0B8
:1017800001C080E0DF91CF911F910F910895FC017E
:1017900073836283918780874617570790F0421BB7
:1017A000530B8485958548175907E0F4BF016E5F98
:1017B0007F4F80919802909199020E94990280E057
:1017C00008954217530718F46217730768F4BF01AE
:1017D0006E5F7F4F80919A0290919B020E949902C6
:1017E00080E0089581E0089581E008950FB6F894AF
:1017F0000F928091960290919702892BE1F485EAED
:1018000092E00E9466028CE992E00E94660285EAFC
:1018100092E090939B0280939A028CE992E09093DD
:1018200099028093980240E065E08AE05BD990934A
:101830009702809396020F900FBE0895EF92FF9249
:101840000F93D4DF8091960290919702892B89F0B3
:101850000F2EF4E9EF2EF2E0FF2EF02D03E020E052
:1018600030E045E550E063E272E082EB90E061DB5E
:1018700001C080E00F91FF90EF9008950F931F93A8
:10188000CF93DF9300D01F921F92CDB7DEB7E091C8
:101890009602F0919702309751F1D90169835B83E9
:1018A0004A839D838C836630D4F423DF823059F4DD
:1018B00020E0A801BE016F5F7F4F8091960290915A
:1018C00097023ED915C020E040E050E0BE016F5FB6
:1018D0007F4F809196029091970232D909C020E003
:1018E000AD01BE016F5F7F4FCF01D4D901C080E051
:1018F0000F900F900F900F900F90DF91CF911F914D
:101900000F910895AF92BF92CF92DF92EF92FF9224
:101910000F931F93CF93DF936C014FDC7C01809179
:10192000920290919302E816F90608F047C02FC082
:101930000580F681E02DA080B180C681D7818E011F
:101940000E5F1F4FC8010E94CA02E889F989CE01C3
:1019500019958B8982FF1BC08C859D858A0D9B1DE7
:10196000A816B90660F49B838A83D987C887B80113
:1019700080919A0290919B020E94990208C000E017
:1019800010E020E030E0A50160E0CE0177DFE091DB
:101990009A02F0919B0280818111CACF80919802B6
:1019A0009091990290939B0280939A02F0939902EE
:1019B000E093980281E0F601808302C0F601108274
:1019C000F0929302E0929202C701DF91CF911F91B2
:1019D0000F91FF90EF90DF90CF90BF90AF90089560
:1019E0000895279A2F9A2FEF80E792E021508040A8
:1019F0009040E1F700C000001F9AF5CF279A2F9A78
:101A00002FEF87EA91E6215080409040E1F700C037
:101A100000001F9AF5CFEE0FFF1F881F8BBF0790A6
:101A2000F691E02D19940F931F93CF93DF9382309B
:101A3000910510F482E090E0E091B202F091B302DF
:101A400020E030E0A0E0B0E0309719F14081518112
:101A50000281138148175907C8F08417950769F464
:101A6000109731F012960C93129713961C9327C07F
:101A70000093B2021093B30222C02115310519F070
:101A80004217530718F49A01BD01EF01DF01F80175
:101A9000DBCF21153105F9F0281B390B2430310536
:101AA00080F48A819B816115710521F0FB0193838C
:101AB000828304C09093B3028093B202FE013296F7
:101AC00044C0FE01E20FF31F81939193225031092C
:101AD000398328833AC02091B0023091B102232B80
:101AE00041F420910202309103023093B10220931D
:101AF000B00220910002309101022115310541F41C
:101B00002DB73EB74091040250910502241B350BBE
:101B1000E091B002F091B102E217F307A0F42E1B9E
:101B20003F0B2817390778F0AC014E5F5F4F241741
:101B3000350748F04E0F5F1F5093B1024093B0023B
:101B40008193919302C0E0E0F0E0CF01DF91CF916B
:101B50001F910F910895CF93DF93009709F481C0EF
:101B6000FC01329713821282A091B202B091B302AB
:101B7000109781F420813181820F931F2091B00250
:101B80003091B1022817390751F5F093B102E09373
:101B9000B00267C0ED0120E030E0CE17DF0740F46F
:101BA0004A815B819E0141155105F1F0EA01F5CFB3
:101BB000D383C28340815181840F951FC817D907F1
:101BC00059F488819981840F951F029691838083AF
:101BD0008A819B81938382832115310529F4F093B7
:101BE000B302E093B2023DC0E901FB83EA8349916D
:101BF0005991C40FD51FEC17FD0761F480819181C5
:101C0000840F951F0296E9019983888382819381CD
:101C10009B838A83E0E0F0E012968D919C9113976C
:101C2000009719F0FD01DC01F7CF8D919C91119780
:101C30009D012E5F3F4F820F931F2091B002309184
:101C4000B1022817390769F4309729F41092B302CA
:101C50001092B20202C013821282B093B102A0931A
:101C6000B002DF91CF910895FB01DC0102C0019029
:101C70000D9241505040D8F70895DC0101C06D939A
:101C800041505040E0F70895CF93DF93CDB7DEB7D2
:101C9000AE014A5F5F4FFA0161917191AF0180918E
:101CA000B6029091B70203D0DF91CF9108952F92A1
:101CB0003F924F925F926F927F928F929F92AF92DC
:101CC000BF92CF92DF92EF92FF920F931F93CF9329
:101CD000DF93CDB7DEB72B970FB6F894DEBF0FBEFC
:101CE000CDBF6C017B018A01FC01178216828381C2
:101CF00081FFBFC1CE0101963C01F6019381F7013E
:101D000093FD859193FF81917F01882309F4ADC1F3
:101D1000853239F493FD859193FF81917F0185325E
:101D200021F4B60190E0D6D1E8CF912C212C312CB2
:101D3000FFE1F315D8F08B3279F038F4803279F086
:101D40008332A1F4232D20611DC08D3261F08033D8
:101D500069F4232D216016C0832D8260382EE32D77
:101D6000E4603E2E2AC0F32DF8601DC037FC2DC064
:101D700020ED280F2A3040F08E32B9F436FC75C1C0
:101D8000232D2064322E19C036FE06C08AE0989EAC
:101D9000200D1124922E11C0EAE02E9E200D112458
:101DA000222EF32DF0623F2E08C08C3621F4832DB5
:101DB0008068382E02C0883641F4F70193FD859182
:101DC00093FF81917F018111B3CF982F9F7D95540F
:101DD000933028F40C5F1F4F9FE399830DC0833627
:101DE00031F0833771F0833509F055C020C0F80118
:101DF000808189830E5F1F4F88248394912C530127
:101E000012C02801F2E04F0E511CF801A080B180F1
:101E100036FE03C0692D70E002C06FEF7FEFC50191
:101E20004ED14C018201F32DFF773F2E15C02801C2
:101E300022E0420E511CF801A080B18036FE03C0A2
:101E4000692D70E002C06FEF7FEFC5012DD14C010D
:101E5000F32DF0683F2E820133FC19C0822D90E0F3
:101E600088169906A0F4B60180E290E033D12A9456
:101E7000F5CFF50137FC859137FE81915F01B60101
:101E800090E028D121102A9421E0821A910881142F
:101E9000910479F7E1C0843611F0893639F5F801FB
:101EA00037FE07C060817181828193810C5F1F4F73
:101EB00008C060817181072E000C880B990B0E5FA2
:101EC0001F4FF32DFF763F2E97FF09C09095809509
:101ED000709561957F4F8F4F9F4FF0683F2E2AE09E
:101EE00030E0A30133D1882E861844C0853731F401
:101EF000232D2F7EB22E2AE030E025C0932D997F2E
:101F0000B92E8F36C1F018F4883579F0AEC080371D
:101F100019F0883721F0A9C0E92FE061BE2EB4FE88
:101F20000DC0FB2DF460BF2E09C034FE0AC0292F5E
:101F30002660B22E06C028E030E005C020E130E087
:101F400002C020E132E0F801B7FE07C06081718174
:101F5000828193810C5F1F4F06C06081718180E098
:101F600090E00E5F1F4FA301F1D0882E8618FB2D45
:101F7000FF773F2E36FE0DC0232D2E7FA22E891413
:101F800058F434FE0BC032FC09C0832D8E7EA82E7F
:101F900005C0B82CA32C03C0B82C01C0B92CA4FEDA
:101FA0000FC0FE01E80DF11D8081803321F49A2DD0
:101FB000997EA92E09C0A2FE06C0B394B39404C0B2
:101FC0008A2D867809F0B394A3FC10C0A0FE06C049
:101FD000B21480F4280C922C9B180DC0B21458F443
:101FE000B60180E290E076D0B394F8CFB21418F442
:101FF0002B1802C0982C212CA4FE0FC0B60180E340
:1020000090E068D0A2FE16C0A1FC03C088E790E073
:1020100002C088E590E0B6010CC08A2D867851F0A8
:10202000A1FE02C08BE201C080E2A7FC8DE2B601F6
:1020300090E050D0891430F4B60180E390E04AD0AB
:102040009A94F8CF8A94F301E80DF11D8081B601CE
:1020500090E040D08110F6CF222009F44ECEB60198
:1020600080E290E037D02A94F7CFF60186819781FD
:1020700002C08FEF9FEF2B960FB6F894DEBF0FBE16
:10208000CDBFDF91CF911F910F91FF90EF90DF9027
:10209000CF90BF90AF909F908F907F906F905F9008
:1020A0004F903F902F900895FC0105906150704033
:1020B0000110D8F7809590958E0F9F1F0895FC0111
:1020C0006150704001900110D8F7809590958E0F67
:1020D0009F1F08950F931F93CF93DF93FB012381DD
:1020E00021FD03C08FEF9FEF2CC022FF16C0468159
:1020F0005781248135814217530744F4A081B1816F
:102100009D012F5F3F4F318320838C932681378140
:102110002F5F3F4F3783268314C08B01EC01FB01F7
:102120000084F185E02D1995892BE1F6D8011696EA
:102130008D919C911797019617969C938E93169765
:10214000CE01DF91CF911F910F910895FA01AA2737
:10215000283051F1203181F1E8946F936E7F6E5FEA
:102160007F4F8F4F9F4FAF4FB1E03ED0B4E03CD098
:10217000670F781F891F9A1FA11D680F791F8A1F7B
:10218000911DA11D6A0F711D811D911DA11D20D0E2
:1021900009F468943F912AE0269F11243019305D9C
:1021A0003193DEF6CF010895462F4770405D41938D
:1021B000B3E00FD0C9F7F6CF462F4F70405D4A33DA
:1021C00018F0495D31FD4052419302D0A9F7EACFA2
:1021D000B4E0A6959795879577956795BA95C9F7D1
:1021E00000976105710508959B01AC010A2E0694C4
:1021F0005795479537952795BA95C9F7620F731F7D
:0C220000841F951FA01D0895F894FFCFC7
:10220C000000BA0220005461736B31005461736B8F
:10221C00320048656C6C6F20776F726C64004944B7
:0C222C004C4500546D7220537663000096
:00000001FF
